{
  "transactions": [
    {
      "hash": "0xe4952fff074865c3336be96fb2e2135f0172f4285edc247c4c9c87b702bfb9cf",
      "transactionType": "CALL",
      "contractName": null,
      "contractAddress": "0x1b53093c2ad2649d048efc070ed13df6bd2b896a",
      "function": "grantRole(bytes32,address)",
      "arguments": [
        "0x4e6c5008b56ad3179fe1ecea656ece0cb1801cc6faf55445a444a3197293b8e3",
        "0x4fE1e2fDfA12CEDEb75C459Be7e38fBA67F1E544"
      ],
      "transaction": {
        "from": "0x0bdb13366934ef2f692dfc2c8cd2d7faa9db37c9",
        "to": "0x1b53093c2ad2649d048efc070ed13df6bd2b896a",
        "gas": "0x115c9",
        "value": "0x0",
        "input": "0x2f2ff15d4e6c5008b56ad3179fe1ecea656ece0cb1801cc6faf55445a444a3197293b8e30000000000000000000000004fe1e2fdfa12cedeb75c459be7e38fba67f1e544",
        "nonce": "0x17",
        "chainId": "0xa869"
      },
      "additionalContracts": [],
      "isFixedGasLimit": false
    }
  ],
  "receipts": [
    {
      "status": "0x1",
      "cumulativeGasUsed": "0xc91e",
      "logs": [
        {
          "address": "0x1b53093c2ad2649d048efc070ed13df6bd2b896a",
          "topics": [
            "0x2f8788117e7eff1d82e926ec794901d17c78024a50270940304540a733656f0d",
            "0x4e6c5008b56ad3179fe1ecea656ece0cb1801cc6faf55445a444a3197293b8e3",
            "0x0000000000000000000000004fe1e2fdfa12cedeb75c459be7e38fba67f1e544",
            "0x0000000000000000000000000bdb13366934ef2f692dfc2c8cd2d7faa9db37c9"
          ],
          "data": "0x",
          "blockHash": "0xacc09fbde8fe5aca504694d1382b5d6d473b3b8e9f1dca3a96a3514c8d689424",
          "blockNumber": "0x230f405",
          "transactionHash": "0xe4952fff074865c3336be96fb2e2135f0172f4285edc247c4c9c87b702bfb9cf",
          "transactionIndex": "0x0",
          "logIndex": "0x0",
          "removed": false
        }
      ],
      "logsBloom": "0x00000004000200000000000000000000000000000000000000000000000000000000800000000000010000000000000000000000000000000000000000000000000000000000000000000000000000000000000000a00000000000000000000000000000000000000000100000000000000000000000040000000000000000000000000000000000000000000000000000000000000000000000000000000020000000000000100000000000000000000000000000080000001000000000000000000000000000000000000000000000000000000000000110000000000000000000040000000000000000000000000000000000000000000000000000000000",
      "type": "0x2",
      "transactionHash": "0xe4952fff074865c3336be96fb2e2135f0172f4285edc247c4c9c87b702bfb9cf",
      "transactionIndex": "0x0",
      "blockHash": "0xacc09fbde8fe5aca504694d1382b5d6d473b3b8e9f1dca3a96a3514c8d689424",
      "blockNumber": "0x230f405",
      "gasUsed": "0xc91e",
      "effectiveGasPrice": "0x5d21dba01",
      "from": "0x0bdb13366934ef2f692dfc2c8cd2d7faa9db37c9",
      "to": "0x1b53093c2ad2649d048efc070ed13df6bd2b896a",
      "contractAddress": null
    }
  ],
  "libraries": [],
  "pending": [],
  "returns": {},
  "timestamp": 1732136109,
  "chain": 43113,
  "commit": "6584b72"
}